{
  "address": "0x319f9d6796aA5BEb249B5788Cb72029224BD5478",
  "abi": [
    {
      "inputs": [
        {
          "internalType": "address",
          "name": "_accessManager",
          "type": "address"
        },
        {
          "internalType": "address",
          "name": "_royaltyManager",
          "type": "address"
        }
      ],
      "stateMutability": "nonpayable",
      "type": "constructor"
    },
    {
      "inputs": [],
      "name": "EnforcedPause",
      "type": "error"
    },
    {
      "inputs": [],
      "name": "ExpectedPause",
      "type": "error"
    },
    {
      "inputs": [
        {
          "internalType": "address",
          "name": "owner",
          "type": "address"
        }
      ],
      "name": "OwnableInvalidOwner",
      "type": "error"
    },
    {
      "inputs": [
        {
          "internalType": "address",
          "name": "account",
          "type": "address"
        }
      ],
      "name": "OwnableUnauthorizedAccount",
      "type": "error"
    },
    {
      "inputs": [],
      "name": "ReentrancyGuardReentrantCall",
      "type": "error"
    },
    {
      "anonymous": false,
      "inputs": [
        {
          "indexed": true,
          "internalType": "uint256",
          "name": "id",
          "type": "uint256"
        }
      ],
      "name": "DatasetDeactivated",
      "type": "event"
    },
    {
      "anonymous": false,
      "inputs": [
        {
          "indexed": true,
          "internalType": "uint256",
          "name": "id",
          "type": "uint256"
        },
        {
          "indexed": true,
          "internalType": "address",
          "name": "buyer",
          "type": "address"
        },
        {
          "indexed": false,
          "internalType": "uint256",
          "name": "price",
          "type": "uint256"
        },
        {
          "indexed": false,
          "internalType": "uint256",
          "name": "timestamp",
          "type": "uint256"
        }
      ],
      "name": "DatasetPurchased",
      "type": "event"
    },
    {
      "anonymous": false,
      "inputs": [
        {
          "indexed": true,
          "internalType": "uint256",
          "name": "id",
          "type": "uint256"
        },
        {
          "indexed": true,
          "internalType": "address",
          "name": "owner",
          "type": "address"
        },
        {
          "indexed": false,
          "internalType": "string",
          "name": "ipfsCID",
          "type": "string"
        },
        {
          "indexed": false,
          "internalType": "uint256",
          "name": "price",
          "type": "uint256"
        },
        {
          "indexed": false,
          "internalType": "string",
          "name": "category",
          "type": "string"
        }
      ],
      "name": "DatasetRegistered",
      "type": "event"
    },
    {
      "anonymous": false,
      "inputs": [
        {
          "indexed": true,
          "internalType": "address",
          "name": "provider",
          "type": "address"
        },
        {
          "indexed": false,
          "internalType": "uint256",
          "name": "amount",
          "type": "uint256"
        }
      ],
      "name": "EarningsWithdrawn",
      "type": "event"
    },
    {
      "anonymous": false,
      "inputs": [
        {
          "indexed": true,
          "internalType": "address",
          "name": "previousOwner",
          "type": "address"
        },
        {
          "indexed": true,
          "internalType": "address",
          "name": "newOwner",
          "type": "address"
        }
      ],
      "name": "OwnershipTransferred",
      "type": "event"
    },
    {
      "anonymous": false,
      "inputs": [
        {
          "indexed": false,
          "internalType": "address",
          "name": "account",
          "type": "address"
        }
      ],
      "name": "Paused",
      "type": "event"
    },
    {
      "anonymous": false,
      "inputs": [
        {
          "indexed": true,
          "internalType": "uint256",
          "name": "id",
          "type": "uint256"
        },
        {
          "indexed": false,
          "internalType": "uint256",
          "name": "newPrice",
          "type": "uint256"
        }
      ],
      "name": "PriceUpdated",
      "type": "event"
    },
    {
      "anonymous": false,
      "inputs": [
        {
          "indexed": true,
          "internalType": "uint256",
          "name": "datasetId",
          "type": "uint256"
        },
        {
          "indexed": true,
          "internalType": "address",
          "name": "trainer",
          "type": "address"
        },
        {
          "indexed": false,
          "internalType": "uint256",
          "name": "accuracy",
          "type": "uint256"
        },
        {
          "indexed": false,
          "internalType": "bytes32",
          "name": "modelHash",
          "type": "bytes32"
        }
      ],
      "name": "TrainingSessionRecorded",
      "type": "event"
    },
    {
      "anonymous": false,
      "inputs": [
        {
          "indexed": false,
          "internalType": "address",
          "name": "account",
          "type": "address"
        }
      ],
      "name": "Unpaused",
      "type": "event"
    },
    {
      "inputs": [],
      "name": "accessManager",
      "outputs": [
        {
          "internalType": "contract AccessManager",
          "name": "",
          "type": "address"
        }
      ],
      "stateMutability": "view",
      "type": "function"
    },
    {
      "inputs": [
        {
          "internalType": "uint256",
          "name": "datasetId",
          "type": "uint256"
        }
      ],
      "name": "deactivateDataset",
      "outputs": [],
      "stateMutability": "nonpayable",
      "type": "function"
    },
    {
      "inputs": [],
      "name": "getActiveDatasets",
      "outputs": [
        {
          "internalType": "uint256[]",
          "name": "",
          "type": "uint256[]"
        }
      ],
      "stateMutability": "view",
      "type": "function"
    },
    {
      "inputs": [],
      "name": "getAllDatasetIds",
      "outputs": [
        {
          "internalType": "uint256[]",
          "name": "",
          "type": "uint256[]"
        }
      ],
      "stateMutability": "view",
      "type": "function"
    },
    {
      "inputs": [
        {
          "internalType": "uint256",
          "name": "datasetId",
          "type": "uint256"
        }
      ],
      "name": "getDataset",
      "outputs": [
        {
          "components": [
            {
              "internalType": "uint256",
              "name": "id",
              "type": "uint256"
            },
            {
              "internalType": "address",
              "name": "owner",
              "type": "address"
            },
            {
              "internalType": "string",
              "name": "ipfsCID",
              "type": "string"
            },
            {
              "internalType": "string",
              "name": "encryptedKeyHash",
              "type": "string"
            },
            {
              "internalType": "uint256",
              "name": "price",
              "type": "uint256"
            },
            {
              "internalType": "bool",
              "name": "isActive",
              "type": "bool"
            },
            {
              "internalType": "uint256",
              "name": "totalSales",
              "type": "uint256"
            },
            {
              "internalType": "uint256",
              "name": "totalRevenue",
              "type": "uint256"
            },
            {
              "internalType": "string",
              "name": "category",
              "type": "string"
            },
            {
              "internalType": "string",
              "name": "description",
              "type": "string"
            },
            {
              "internalType": "uint256",
              "name": "createdAt",
              "type": "uint256"
            },
            {
              "internalType": "uint256",
              "name": "lastUpdatedAt",
              "type": "uint256"
            },
            {
              "internalType": "uint256",
              "name": "trainingSessionCount",
              "type": "uint256"
            }
          ],
          "internalType": "struct DatasetLib.Dataset",
          "name": "",
          "type": "tuple"
        }
      ],
      "stateMutability": "view",
      "type": "function"
    },
    {
      "inputs": [],
      "name": "getDatasetCount",
      "outputs": [
        {
          "internalType": "uint256",
          "name": "",
          "type": "uint256"
        }
      ],
      "stateMutability": "view",
      "type": "function"
    },
    {
      "inputs": [
        {
          "internalType": "address",
          "name": "provider",
          "type": "address"
        }
      ],
      "name": "getPendingEarnings",
      "outputs": [
        {
          "internalType": "uint256",
          "name": "",
          "type": "uint256"
        }
      ],
      "stateMutability": "view",
      "type": "function"
    },
    {
      "inputs": [],
      "name": "getPlatformStats",
      "outputs": [
        {
          "internalType": "uint256",
          "name": "datasetCount",
          "type": "uint256"
        },
        {
          "internalType": "uint256",
          "name": "volume",
          "type": "uint256"
        },
        {
          "internalType": "uint256",
          "name": "transactions",
          "type": "uint256"
        },
        {
          "internalType": "uint256",
          "name": "trainingSessions",
          "type": "uint256"
        }
      ],
      "stateMutability": "view",
      "type": "function"
    },
    {
      "inputs": [
        {
          "internalType": "address",
          "name": "provider",
          "type": "address"
        }
      ],
      "name": "getProviderDatasets",
      "outputs": [
        {
          "internalType": "uint256[]",
          "name": "",
          "type": "uint256[]"
        }
      ],
      "stateMutability": "view",
      "type": "function"
    },
    {
      "inputs": [
        {
          "internalType": "uint256",
          "name": "datasetId",
          "type": "uint256"
        },
        {
          "internalType": "address",
          "name": "buyer",
          "type": "address"
        }
      ],
      "name": "getPurchaseRecord",
      "outputs": [
        {
          "components": [
            {
              "internalType": "uint256",
              "name": "datasetId",
              "type": "uint256"
            },
            {
              "internalType": "address",
              "name": "buyer",
              "type": "address"
            },
            {
              "internalType": "uint256",
              "name": "pricePaid",
              "type": "uint256"
            },
            {
              "internalType": "uint256",
              "name": "timestamp",
              "type": "uint256"
            }
          ],
          "internalType": "struct DatasetLib.PurchaseRecord",
          "name": "",
          "type": "tuple"
        }
      ],
      "stateMutability": "view",
      "type": "function"
    },
    {
      "inputs": [
        {
          "internalType": "uint256",
          "name": "datasetId",
          "type": "uint256"
        }
      ],
      "name": "getTrainingSessions",
      "outputs": [
        {
          "components": [
            {
              "internalType": "uint256",
              "name": "datasetId",
              "type": "uint256"
            },
            {
              "internalType": "address",
              "name": "trainer",
              "type": "address"
            },
            {
              "internalType": "uint256",
              "name": "accuracy",
              "type": "uint256"
            },
            {
              "internalType": "bytes32",
              "name": "modelHash",
              "type": "bytes32"
            },
            {
              "internalType": "uint256",
              "name": "timestamp",
              "type": "uint256"
            }
          ],
          "internalType": "struct DatasetLib.TrainingSession[]",
          "name": "",
          "type": "tuple[]"
        }
      ],
      "stateMutability": "view",
      "type": "function"
    },
    {
      "inputs": [
        {
          "internalType": "uint256",
          "name": "datasetId",
          "type": "uint256"
        },
        {
          "internalType": "address",
          "name": "user",
          "type": "address"
        }
      ],
      "name": "hasAccess",
      "outputs": [
        {
          "internalType": "bool",
          "name": "",
          "type": "bool"
        }
      ],
      "stateMutability": "view",
      "type": "function"
    },
    {
      "inputs": [],
      "name": "owner",
      "outputs": [
        {
          "internalType": "address",
          "name": "",
          "type": "address"
        }
      ],
      "stateMutability": "view",
      "type": "function"
    },
    {
      "inputs": [],
      "name": "pause",
      "outputs": [],
      "stateMutability": "nonpayable",
      "type": "function"
    },
    {
      "inputs": [],
      "name": "paused",
      "outputs": [
        {
          "internalType": "bool",
          "name": "",
          "type": "bool"
        }
      ],
      "stateMutability": "view",
      "type": "function"
    },
    {
      "inputs": [
        {
          "internalType": "uint256",
          "name": "datasetId",
          "type": "uint256"
        }
      ],
      "name": "purchaseDataset",
      "outputs": [],
      "stateMutability": "payable",
      "type": "function"
    },
    {
      "inputs": [
        {
          "internalType": "uint256",
          "name": "datasetId",
          "type": "uint256"
        },
        {
          "internalType": "uint256",
          "name": "accuracy",
          "type": "uint256"
        },
        {
          "internalType": "bytes32",
          "name": "modelHash",
          "type": "bytes32"
        }
      ],
      "name": "recordTrainingSession",
      "outputs": [],
      "stateMutability": "nonpayable",
      "type": "function"
    },
    {
      "inputs": [
        {
          "internalType": "string",
          "name": "ipfsCID",
          "type": "string"
        },
        {
          "internalType": "string",
          "name": "encryptedKeyHash",
          "type": "string"
        },
        {
          "internalType": "uint256",
          "name": "price",
          "type": "uint256"
        },
        {
          "internalType": "string",
          "name": "category",
          "type": "string"
        },
        {
          "internalType": "string",
          "name": "description",
          "type": "string"
        }
      ],
      "name": "registerDataset",
      "outputs": [
        {
          "internalType": "uint256",
          "name": "datasetId",
          "type": "uint256"
        }
      ],
      "stateMutability": "nonpayable",
      "type": "function"
    },
    {
      "inputs": [],
      "name": "renounceOwnership",
      "outputs": [],
      "stateMutability": "nonpayable",
      "type": "function"
    },
    {
      "inputs": [],
      "name": "royaltyManager",
      "outputs": [
        {
          "internalType": "contract RoyaltyManager",
          "name": "",
          "type": "address"
        }
      ],
      "stateMutability": "view",
      "type": "function"
    },
    {
      "inputs": [],
      "name": "totalTrainingSessions",
      "outputs": [
        {
          "internalType": "uint256",
          "name": "",
          "type": "uint256"
        }
      ],
      "stateMutability": "view",
      "type": "function"
    },
    {
      "inputs": [],
      "name": "totalTransactions",
      "outputs": [
        {
          "internalType": "uint256",
          "name": "",
          "type": "uint256"
        }
      ],
      "stateMutability": "view",
      "type": "function"
    },
    {
      "inputs": [],
      "name": "totalVolume",
      "outputs": [
        {
          "internalType": "uint256",
          "name": "",
          "type": "uint256"
        }
      ],
      "stateMutability": "view",
      "type": "function"
    },
    {
      "inputs": [
        {
          "internalType": "address",
          "name": "newOwner",
          "type": "address"
        }
      ],
      "name": "transferOwnership",
      "outputs": [],
      "stateMutability": "nonpayable",
      "type": "function"
    },
    {
      "inputs": [],
      "name": "unpause",
      "outputs": [],
      "stateMutability": "nonpayable",
      "type": "function"
    },
    {
      "inputs": [
        {
          "internalType": "uint256",
          "name": "datasetId",
          "type": "uint256"
        },
        {
          "internalType": "uint256",
          "name": "newPrice",
          "type": "uint256"
        }
      ],
      "name": "updatePrice",
      "outputs": [],
      "stateMutability": "nonpayable",
      "type": "function"
    },
    {
      "inputs": [],
      "name": "withdrawEarnings",
      "outputs": [],
      "stateMutability": "nonpayable",
      "type": "function"
    }
  ],
  "transactionHash": "0x185e75d1587d570b188844b1a8d1a611bccc475e3a9134a15c1942585dd2a390",
  "args": [
    "0x673a7785452781E092dA8474CA8e21c285d79094",
    "0xc19f947C383eBfDA2ab76b940Ea1538F219e6755"
  ],
  "numDeployments": 1,
  "solcInputHash": "7b6a1b19683268292cda310fe0b75767",
  "bytecode": "0x608060405234801561001057600080fd5b506040516126fe3803806126fe83398101604081905261002f916101d9565b338061005657604051631e4fbdf760e01b8152600060048201526024015b60405180910390fd5b61005f8161016d565b506000805460ff60a01b19169055600180556001600160a01b0382166100d65760405162461bcd60e51b815260206004820152602660248201527f4149446174614d61726b6574706c6163653a207a65726f20616363657373206d60448201526530b730b3b2b960d11b606482015260840161004d565b6001600160a01b03811661013c5760405162461bcd60e51b815260206004820152602760248201527f4149446174614d61726b6574706c6163653a207a65726f20726f79616c74792060448201526636b0b730b3b2b960c91b606482015260840161004d565b600280546001600160a01b039384166001600160a01b0319918216179091556003805492909316911617905561020c565b600080546001600160a01b038381166001600160a01b0319831681178455604051919092169283917f8be0079c531659141344cd1fd0a4f28419497f9722a3daafe3b4186f6b6457e09190a35050565b80516001600160a01b03811681146101d457600080fd5b919050565b600080604083850312156101ec57600080fd5b6101f5836101bd565b9150610203602084016101bd565b90509250929050565b6124e38061021b6000396000f3fe60806040526004361061019c5760003560e01c8063a7c842d4116100ec578063ee0042211161008a578063f2fde38b11610064578063f2fde38b14610482578063f5f067bc146104a2578063fdcb6068146104b7578063ff8fbfc9146104d757600080fd5b8063ee00422114610415578063ee295d6214610442578063eff0e7011461046257600080fd5b8063b9a60038116100c6578063b9a6003814610392578063ccf0167b146103a8578063ced14198146103c8578063db360ecd146103e857600080fd5b8063a7c842d414610347578063a8a2b2781461035d578063b73c6ce91461037d57600080fd5b80635f81a57c1161015957806382367b2d1161013357806382367b2d146102c057806382f1b6b1146102e05780638456cb59146103005780638da5cb5b1461031557600080fd5b80635f81a57c1461027357806365e1f5bf14610289578063715018a6146102ab57600080fd5b8063136d8883146101a1578063160df385146101df5780632f5201bd146102015780633f4ba83a1461022057806349ee56f9146102355780635c975abb14610248575b600080fd5b3480156101ad57600080fd5b50600454600a54600b54600c546040805194855260208501939093529183015260608201526080015b60405180910390f35b3480156101eb57600080fd5b506101ff6101fa366004611e12565b610533565b005b34801561020d57600080fd5b506004545b6040519081526020016101d6565b34801561022c57600080fd5b506101ff610662565b6101ff610243366004611e12565b610674565b34801561025457600080fd5b50600054600160a01b900460ff165b60405190151581526020016101d6565b34801561027f57600080fd5b50610212600a5481565b34801561029557600080fd5b5061029e610ba6565b6040516101d69190611e2b565b3480156102b757600080fd5b506101ff610bfe565b3480156102cc57600080fd5b506101ff6102db366004611e6e565b610c10565b3480156102ec57600080fd5b506102126102fb366004611eac565b610ced565b34801561030c57600080fd5b506101ff610d62565b34801561032157600080fd5b506000546001600160a01b03165b6040516001600160a01b0390911681526020016101d6565b34801561035357600080fd5b50610212600c5481565b34801561036957600080fd5b50610212610378366004611f10565b610d72565b34801561038957600080fd5b506101ff6111d9565b34801561039e57600080fd5b50610212600b5481565b3480156103b457600080fd5b506101ff6103c3366004611ff3565b61128b565b3480156103d457600080fd5b506102636103e336600461201f565b61151e565b3480156103f457600080fd5b50610408610403366004611e12565b61159b565b6040516101d6919061204b565b34801561042157600080fd5b50610435610430366004611e12565b611642565b6040516101d691906120ff565b34801561044e57600080fd5b5060035461032f906001600160a01b031681565b34801561046e57600080fd5b5061029e61047d366004611eac565b6119f8565b34801561048e57600080fd5b506101ff61049d366004611eac565b611a64565b3480156104ae57600080fd5b5061029e611a9f565b3480156104c357600080fd5b5060025461032f906001600160a01b031681565b3480156104e357600080fd5b506104f76104f236600461201f565b611bf1565b6040516101d69190815181526020808301516001600160a01b031690820152604080830151908201526060918201519181019190915260800190565b600081815260056020526040902060018101546001600160a01b031633148061056657506000546001600160a01b031633145b6105c15760405162461bcd60e51b815260206004820152602160248201527f4149446174614d61726b6574706c6163653a206e6f7420617574686f72697a656044820152601960fa1b60648201526084015b60405180910390fd5b600581015460ff166106215760405162461bcd60e51b815260206004820152602360248201527f4149446174614d61726b6574706c6163653a20616c726561647920696e61637460448201526269766560e81b60648201526084016105b8565b60058101805460ff1916905542600b82015560405182907fb62dafcaf05bec335937120803985f465b2f6fd8755a870bddefd6d1dc39bf1f90600090a25050565b61066a611c7e565b610672611cab565b565b61067c611d00565b610684611d2b565b600081815260056020526040902060018101546001600160a01b03166106f85760405162461bcd60e51b8152602060048201526024808201527f4149446174614d61726b6574706c6163653a2064617461736574206e6f7420666044820152631bdd5b9960e21b60648201526084016105b8565b600581015460ff1661075a5760405162461bcd60e51b815260206004820152602560248201527f4149446174614d61726b6574706c6163653a2064617461736574206e6f742061604482015264637469766560d81b60648201526084016105b8565b60018101546001600160a01b031633036107ce5760405162461bcd60e51b815260206004820152602f60248201527f4149446174614d61726b6574706c6163653a206f776e65722063616e6e6f742060448201526e189d5e481bdddb8819185d185cd95d608a1b60648201526084016105b8565b6002546040516319da283360e31b8152600481018490523360248201526001600160a01b039091169063ced1419890604401602060405180830381865afa15801561081d573d6000803e3d6000fd5b505050506040513d601f19601f820116820180604052508101906108419190612203565b1561089a5760405162461bcd60e51b8152602060048201526024808201527f4149446174614d61726b6574706c6163653a20616c7265616479207075726368604482015263185cd95960e21b60648201526084016105b8565b80600401543410156108fe5760405162461bcd60e51b815260206004820152602760248201527f4149446174614d61726b6574706c6163653a20696e73756666696369656e74206044820152661c185e5b595b9d60ca1b60648201526084016105b8565b6006810180549060006109108361223b565b9190505550348160070160008282546109299190612254565b909155505042600b820181905560408051608081018252848152336020808301828152348486018181526060860197885260008a8152600885528781209581529490935294832093518455516001840180546001600160a01b0319166001600160a01b039092169190911790555160028301559251600390910155600a8054919290916109b7908490612254565b9091555050600b80549060006109cc8361223b565b9091555050600254604051631977454b60e21b8152600481018490523360248201526001600160a01b03909116906365dd152c90604401600060405180830381600087803b158015610a1d57600080fd5b505af1158015610a31573d6000803e3d6000fd5b505060035460018401546040516370fd458160e11b8152600481018790526001600160a01b0391821660248201529116925063e1fa8b02915034906044016000604051808303818588803b158015610a8857600080fd5b505af1158015610a9c573d6000803e3d6000fd5b50505050508060040154341115610b5d576000816004015434610abf9190612267565b604051909150600090339083908381818185875af1925050503d8060008114610b04576040519150601f19603f3d011682016040523d82523d6000602084013e610b09565b606091505b5050905080610b5a5760405162461bcd60e51b815260206004820181905260248201527f4149446174614d61726b6574706c6163653a20726566756e64206661696c656460448201526064016105b8565b50505b60408051348152426020820152339184917f8c10c1224c18b0cd63a2e7f7ad2a7acb646d6e10a97dfc840f06bbc0c37eae85910160405180910390a350610ba360018055565b50565b60606009805480602002602001604051908101604052809291908181526020018280548015610bf457602002820191906000526020600020905b815481526020019060010190808311610be0575b5050505050905090565b610c06611c7e565b6106726000611d55565b600082815260056020526040902060018101546001600160a01b03163314610c865760405162461bcd60e51b8152602060048201526024808201527f4149446174614d61726b6574706c6163653a206e6f742064617461736574206f6044820152633bb732b960e11b60648201526084016105b8565b60008211610ca65760405162461bcd60e51b81526004016105b89061227a565b6004810182905542600b82015560405182815283907f945c1c4e99aa89f648fbfe3df471b916f719e16d960fcec0737d4d56bd6968389060200160405180910390a2505050565b6003546040516382f1b6b160e01b81526001600160a01b03838116600483015260009216906382f1b6b190602401602060405180830381865afa158015610d38573d6000803e3d6000fd5b505050506040513d601f19601f82011682018060405250810190610d5c91906122be565b92915050565b610d6a611c7e565b610672611da5565b6000610d7c611d00565b600a891015610dcd5760405162461bcd60e51b815260206004820152601e60248201527f4149446174614d61726b6574706c6163653a20696e76616c696420434944000060448201526064016105b8565b86610e265760405162461bcd60e51b815260206004820152602360248201527f4149446174614d61726b6574706c6163653a206d697373696e67206b657920686044820152620c2e6d60eb1b60648201526084016105b8565b60008611610e465760405162461bcd60e51b81526004016105b89061227a565b83610e9f5760405162461bcd60e51b815260206004820152602360248201527f4149446174614d61726b6574706c6163653a206d697373696e672063617465676044820152626f727960e81b60648201526084016105b8565b81610efb5760405162461bcd60e51b815260206004820152602660248201527f4149446174614d61726b6574706c6163653a206d697373696e6720646573637260448201526534b83a34b7b760d11b60648201526084016105b8565b60048054906000610f0b8361223b565b919050559050604051806101a00160405280828152602001336001600160a01b031681526020018b8b8080601f016020809104026020016040519081016040528093929190818152602001838380828437600092019190915250505090825250604080516020601f8c018190048102820181019092528a815291810191908b908b9081908401838280828437600092018290525093855250505060208083018a905260016040808501919091526060840183905260808401929092528151601f890182900482028101820190925287825260a0909201918890889081908401838280828437600092019190915250505090825250604080516020601f870181900481028201810190925285815291810191908690869081908401838280828437600092018290525093855250504260208085018290526040808601929092526060909401839052858352600584529182902084518155928401516001840180546001600160a01b0319166001600160a01b039092169190911790555082015160028201906110999082612376565b50606082015160038201906110ae9082612376565b506080820151600482015560a082015160058201805460ff191691151591909117905560c0820151600682015560e0820151600782015561010082015160088201906110fa9082612376565b5061012082015160098201906111109082612376565b50610140820151600a820155610160820151600b82015561018090910151600c909101553360008181526006602090815260408083208054600181810183559185529284209092018590556009805492830181559092527f6e1540171b6c0c960b71a7020d9f60077f6af931a8bbf590da0223dacf75c7af018390555182907f9c37775c6197d807e80ce52822d969584534f77eceaf7664a45ef5ca47e8f5c7906111c4908e908e908c908c908c9061245e565b60405180910390a39998505050505050505050565b6111e1611d2b565b600360009054906101000a90046001600160a01b03166001600160a01b031663b73c6ce96040518163ffffffff1660e01b8152600401600060405180830381600087803b15801561123157600080fd5b505af1158015611245573d6000803e3d6000fd5b5050604051600080825292503391507f48dc35af7b45e2a81fffad55f6e2fafacdb1d3d0d50d24ebdc16324f5ba757f19060200160405180910390a25061067260018055565b611293611d00565b6002546040516319da283360e31b8152600481018590523360248201526001600160a01b039091169063ced1419890604401602060405180830381865afa1580156112e2573d6000803e3d6000fd5b505050506040513d601f19601f820116820180604052508101906113069190612203565b6113625760405162461bcd60e51b815260206004820152602760248201527f4149446174614d61726b6574706c6163653a206e6f2061636365737320746f2060448201526619185d185cd95d60ca1b60648201526084016105b8565b6127108211156113bf5760405162461bcd60e51b815260206004820152602260248201527f4149446174614d61726b6574706c6163653a206163637572616379203e203130604482015261302560f01b60648201526084016105b8565b8061141a5760405162461bcd60e51b815260206004820152602560248201527f4149446174614d61726b6574706c6163653a20696e76616c6964206d6f64656c604482015264040d0c2e6d60db1b60648201526084016105b8565b6000838152600560205260408120600c018054916114378361223b565b9091555050600c805490600061144c8361223b565b90915550506000838152600760209081526040808320815160a08101835287815233818501818152828501898152606084018981524260808601908152865460018082018955978b529989902095516005909a02909501988955915194880180546001600160a01b0319166001600160a01b0390961695909517909455925160028701559151600386015551600490940193909355805185815291820184905285917fe918bfafe08720a3702f6510dc8ba7c52cca7522c9dfa0c313bd08d5751db248910160405180910390a3505050565b6002546040516319da283360e31b8152600481018490526001600160a01b038381166024830152600092169063ced1419890604401602060405180830381865afa158015611570573d6000803e3d6000fd5b505050506040513d601f19601f820116820180604052508101906115949190612203565b9392505050565b606060076000838152602001908152602001600020805480602002602001604051908101604052809291908181526020016000905b828210156116375760008481526020908190206040805160a08101825260058602909201805483526001808201546001600160a01b0316848601526002820154928401929092526003810154606084015260040154608083015290835290920191016115d0565b505050509050919050565b6116b8604051806101a001604052806000815260200160006001600160a01b03168152602001606081526020016060815260200160008152602001600015158152602001600081526020016000815260200160608152602001606081526020016000815260200160008152602001600081525090565b6000828152600560205260409020600101546001600160a01b031661171f5760405162461bcd60e51b815260206004820152601c60248201527f4149446174614d61726b6574706c6163653a206e6f7420666f756e640000000060448201526064016105b8565b60008281526005602090815260409182902082516101a0810184528154815260018201546001600160a01b031692810192909252600281018054929391929184019161176a906122ed565b80601f0160208091040260200160405190810160405280929190818152602001828054611796906122ed565b80156117e35780601f106117b8576101008083540402835291602001916117e3565b820191906000526020600020905b8154815290600101906020018083116117c657829003601f168201915b505050505081526020016003820180546117fc906122ed565b80601f0160208091040260200160405190810160405280929190818152602001828054611828906122ed565b80156118755780601f1061184a57610100808354040283529160200191611875565b820191906000526020600020905b81548152906001019060200180831161185857829003601f168201915b505050918352505060048201546020820152600582015460ff1615156040820152600682015460608201526007820154608082015260088201805460a0909201916118bf906122ed565b80601f01602080910402602001604051908101604052809291908181526020018280546118eb906122ed565b80156119385780601f1061190d57610100808354040283529160200191611938565b820191906000526020600020905b81548152906001019060200180831161191b57829003601f168201915b50505050508152602001600982018054611951906122ed565b80601f016020809104026020016040519081016040528092919081815260200182805461197d906122ed565b80156119ca5780601f1061199f576101008083540402835291602001916119ca565b820191906000526020600020905b8154815290600101906020018083116119ad57829003601f168201915b50505050508152602001600a8201548152602001600b8201548152602001600c820154815250509050919050565b6001600160a01b038116600090815260066020908152604091829020805483518184028101840190945280845260609392830182828015611a5857602002820191906000526020600020905b815481526020019060010190808311611a44575b50505050509050919050565b611a6c611c7e565b6001600160a01b038116611a9657604051631e4fbdf760e01b8152600060048201526024016105b8565b610ba381611d55565b60606000805b600954811015611b03576005600060098381548110611ac657611ac6612497565b6000918252602080832090910154835282019290925260400190206005015460ff1615611afb5781611af78161223b565b9250505b600101611aa5565b5060008167ffffffffffffffff811115611b1f57611b1f6122d7565b604051908082528060200260200182016040528015611b48578160200160208202803683370190505b5090506000805b600954811015611be8576005600060098381548110611b7057611b70612497565b6000918252602080832090910154835282019290925260400190206005015460ff1615611be05760098181548110611baa57611baa612497565b9060005260206000200154838380611bc19061223b565b945081518110611bd357611bd3612497565b6020026020010181815250505b600101611b4f565b50909392505050565b611c2560405180608001604052806000815260200160006001600160a01b0316815260200160008152602001600081525090565b5060008281526008602090815260408083206001600160a01b0380861685529083529281902081516080810183528154815260018201549094169284019290925260028201549083015260030154606082015292915050565b6000546001600160a01b031633146106725760405163118cdaa760e01b81523360048201526024016105b8565b611cb3611de8565b6000805460ff60a01b191690557f5db9ee0a495bf2e6ff9c91a7834c1ba4fdd244a5e8aa4e537bd38aeae4b073aa335b6040516001600160a01b03909116815260200160405180910390a1565b600054600160a01b900460ff16156106725760405163d93c066560e01b815260040160405180910390fd5b600260015403611d4e57604051633ee5aeb560e01b815260040160405180910390fd5b6002600155565b600080546001600160a01b038381166001600160a01b0319831681178455604051919092169283917f8be0079c531659141344cd1fd0a4f28419497f9722a3daafe3b4186f6b6457e09190a35050565b611dad611d00565b6000805460ff60a01b1916600160a01b1790557f62e78cea01bee320cd4e420270b5ea74000d11b0c9f74754ebdbfc544b05a258611ce33390565b600054600160a01b900460ff1661067257604051638dfc202b60e01b815260040160405180910390fd5b600060208284031215611e2457600080fd5b5035919050565b602080825282518282018190526000918401906040840190835b81811015611e63578351835260209384019390920191600101611e45565b509095945050505050565b60008060408385031215611e8157600080fd5b50508035926020909101359150565b80356001600160a01b0381168114611ea757600080fd5b919050565b600060208284031215611ebe57600080fd5b61159482611e90565b60008083601f840112611ed957600080fd5b50813567ffffffffffffffff811115611ef157600080fd5b602083019150836020828501011115611f0957600080fd5b9250929050565b600080600080600080600080600060a08a8c031215611f2e57600080fd5b893567ffffffffffffffff811115611f4557600080fd5b611f518c828d01611ec7565b909a5098505060208a013567ffffffffffffffff811115611f7157600080fd5b611f7d8c828d01611ec7565b90985096505060408a0135945060608a013567ffffffffffffffff811115611fa457600080fd5b611fb08c828d01611ec7565b90955093505060808a013567ffffffffffffffff811115611fd057600080fd5b611fdc8c828d01611ec7565b915080935050809150509295985092959850929598565b60008060006060848603121561200857600080fd5b505081359360208301359350604090920135919050565b6000806040838503121561203257600080fd5b8235915061204260208401611e90565b90509250929050565b602080825282518282018190526000918401906040840190835b81811015611e63578351805184526020808201516001600160a01b0316818601526040808301519086015260608083015190860152608091820151918501919091529093019260a090920191600101612065565b6000815180845260005b818110156120df576020818501810151868301820152016120c3565b506000602082860101526020601f19601f83011685010191505092915050565b60208152815160208201526000602083015161212660408401826001600160a01b03169052565b5060408301516101a060608401526121426101c08401826120b9565b90506060840151601f1984830301608085015261215f82826120b9565b915050608084015160a084015260a084015161217f60c085018215159052565b5060c084015160e084015260e0840151610100840152610100840151601f19848303016101208501526121b282826120b9565b915050610120840151601f19848303016101408501526121d282826120b9565b9150506101408401516101608401526101608401516101808401526101808401516101a08401528091505092915050565b60006020828403121561221557600080fd5b8151801515811461159457600080fd5b634e487b7160e01b600052601160045260246000fd5b60006001820161224d5761224d612225565b5060010190565b80820180821115610d5c57610d5c612225565b81810381811115610d5c57610d5c612225565b60208082526024908201527f4149446174614d61726b6574706c6163653a207072696365206d7573742062656040820152630203e20360e41b606082015260800190565b6000602082840312156122d057600080fd5b5051919050565b634e487b7160e01b600052604160045260246000fd5b600181811c9082168061230157607f821691505b60208210810361232157634e487b7160e01b600052602260045260246000fd5b50919050565b601f82111561237157806000526020600020601f840160051c8101602085101561234e5750805b601f840160051c820191505b8181101561236e576000815560010161235a565b50505b505050565b815167ffffffffffffffff811115612390576123906122d7565b6123a48161239e84546122ed565b84612327565b6020601f8211600181146123d857600083156123c05750848201515b600019600385901b1c1916600184901b17845561236e565b600084815260208120601f198516915b8281101561240857878501518255602094850194600190920191016123e8565b50848210156124265786840151600019600387901b60f8161c191681555b50505050600190811b01905550565b81835281816020850137506000828201602090810191909152601f909101601f19169091010190565b606081526000612472606083018789612435565b856020840152828103604084015261248b818587612435565b98975050505050505050565b634e487b7160e01b600052603260045260246000fdfea2646970667358221220bb71cc7b105f6d45aa695ab3dfafdf1c37155d03f792f5f152c0a1164d8e424c64736f6c634300081e0033",
  "devdoc": {
    "details": "Core AI Data Marketplace contract deployed on Monad.      Enables privacy-preserving AI dataset transactions with:      - IPFS-based encrypted storage (CID on-chain only)      - MON token payments      - 2% platform fee, 98% to providers      - On-chain training session proofs      - Access control via AccessManager      - Royalty distribution via RoyaltyManager",
    "errors": {
      "EnforcedPause()": [
        {
          "details": "The operation failed because the contract is paused."
        }
      ],
      "ExpectedPause()": [
        {
          "details": "The operation failed because the contract is not paused."
        }
      ],
      "OwnableInvalidOwner(address)": [
        {
          "details": "The owner is not a valid owner account. (eg. `address(0)`)"
        }
      ],
      "OwnableUnauthorizedAccount(address)": [
        {
          "details": "The caller account is not authorized to perform an operation."
        }
      ],
      "ReentrancyGuardReentrantCall()": [
        {
          "details": "Unauthorized reentrant call."
        }
      ]
    },
    "events": {
      "Paused(address)": {
        "details": "Emitted when the pause is triggered by `account`."
      },
      "Unpaused(address)": {
        "details": "Emitted when the pause is lifted by `account`."
      }
    },
    "kind": "dev",
    "methods": {
      "owner()": {
        "details": "Returns the address of the current owner."
      },
      "paused()": {
        "details": "Returns true if the contract is paused, and false otherwise."
      },
      "purchaseDataset(uint256)": {
        "params": {
          "datasetId": "ID of the dataset to purchase"
        }
      },
      "recordTrainingSession(uint256,uint256,bytes32)": {
        "params": {
          "accuracy": "Model accuracy * 100 (e.g., 9523 = 95.23%)",
          "datasetId": "Dataset used for training",
          "modelHash": "Keccak256 hash of the trained model"
        }
      },
      "registerDataset(string,string,uint256,string,string)": {
        "params": {
          "category": "Dataset category (CV, NLP, Audio, Tabular, Multimodal, etc.)",
          "description": "Human-readable description",
          "encryptedKeyHash": "Hash of the encryption key (key itself never on-chain)",
          "ipfsCID": "IPFS CID of the encrypted dataset",
          "price": "Price in wei (MON tokens)"
        }
      },
      "renounceOwnership()": {
        "details": "Leaves the contract without owner. It will not be possible to call `onlyOwner` functions. Can only be called by the current owner. NOTE: Renouncing ownership will leave the contract without an owner, thereby disabling any functionality that is only available to the owner."
      },
      "transferOwnership(address)": {
        "details": "Transfers ownership of the contract to a new account (`newOwner`). Can only be called by the current owner."
      }
    },
    "title": "AIDataMarketplace",
    "version": 1
  },
  "userdoc": {
    "kind": "user",
    "methods": {
      "deactivateDataset(uint256)": {
        "notice": "Deactivate a dataset (by owner or contract owner)"
      },
      "purchaseDataset(uint256)": {
        "notice": "Purchase access to a dataset (pay in MON)"
      },
      "recordTrainingSession(uint256,uint256,bytes32)": {
        "notice": "Record a training session with proof of training"
      },
      "registerDataset(string,string,uint256,string,string)": {
        "notice": "Register a new encrypted AI dataset on Monad"
      },
      "updatePrice(uint256,uint256)": {
        "notice": "Update dataset price (by owner only)"
      },
      "withdrawEarnings()": {
        "notice": "Provider withdraws accumulated earnings from RoyaltyManager"
      }
    },
    "version": 1
  },
  "storageLayout": {
    "storage": [
      {
        "astId": 8,
        "contract": "contracts/AIDataMarketplace.sol:AIDataMarketplace",
        "label": "_owner",
        "offset": 0,
        "slot": "0",
        "type": "t_address"
      },
      {
        "astId": 186,
        "contract": "contracts/AIDataMarketplace.sol:AIDataMarketplace",
        "label": "_paused",
        "offset": 20,
        "slot": "0",
        "type": "t_bool"
      },
      {
        "astId": 305,
        "contract": "contracts/AIDataMarketplace.sol:AIDataMarketplace",
        "label": "_status",
        "offset": 0,
        "slot": "1",
        "type": "t_uint256"
      },
      {
        "astId": 388,
        "contract": "contracts/AIDataMarketplace.sol:AIDataMarketplace",
        "label": "accessManager",
        "offset": 0,
        "slot": "2",
        "type": "t_contract(AccessManager)1427"
      },
      {
        "astId": 391,
        "contract": "contracts/AIDataMarketplace.sol:AIDataMarketplace",
        "label": "royaltyManager",
        "offset": 0,
        "slot": "3",
        "type": "t_contract(RoyaltyManager)2138"
      },
      {
        "astId": 393,
        "contract": "contracts/AIDataMarketplace.sol:AIDataMarketplace",
        "label": "_datasetCounter",
        "offset": 0,
        "slot": "4",
        "type": "t_uint256"
      },
      {
        "astId": 398,
        "contract": "contracts/AIDataMarketplace.sol:AIDataMarketplace",
        "label": "_datasets",
        "offset": 0,
        "slot": "5",
        "type": "t_mapping(t_uint256,t_struct(Dataset)2550_storage)"
      },
      {
        "astId": 403,
        "contract": "contracts/AIDataMarketplace.sol:AIDataMarketplace",
        "label": "_providerDatasets",
        "offset": 0,
        "slot": "6",
        "type": "t_mapping(t_address,t_array(t_uint256)dyn_storage)"
      },
      {
        "astId": 409,
        "contract": "contracts/AIDataMarketplace.sol:AIDataMarketplace",
        "label": "_trainingSessions",
        "offset": 0,
        "slot": "7",
        "type": "t_mapping(t_uint256,t_array(t_struct(TrainingSession)2561_storage)dyn_storage)"
      },
      {
        "astId": 416,
        "contract": "contracts/AIDataMarketplace.sol:AIDataMarketplace",
        "label": "_purchases",
        "offset": 0,
        "slot": "8",
        "type": "t_mapping(t_uint256,t_mapping(t_address,t_struct(PurchaseRecord)2570_storage))"
      },
      {
        "astId": 419,
        "contract": "contracts/AIDataMarketplace.sol:AIDataMarketplace",
        "label": "_allDatasetIds",
        "offset": 0,
        "slot": "9",
        "type": "t_array(t_uint256)dyn_storage"
      },
      {
        "astId": 421,
        "contract": "contracts/AIDataMarketplace.sol:AIDataMarketplace",
        "label": "totalVolume",
        "offset": 0,
        "slot": "10",
        "type": "t_uint256"
      },
      {
        "astId": 423,
        "contract": "contracts/AIDataMarketplace.sol:AIDataMarketplace",
        "label": "totalTransactions",
        "offset": 0,
        "slot": "11",
        "type": "t_uint256"
      },
      {
        "astId": 425,
        "contract": "contracts/AIDataMarketplace.sol:AIDataMarketplace",
        "label": "totalTrainingSessions",
        "offset": 0,
        "slot": "12",
        "type": "t_uint256"
      }
    ],
    "types": {
      "t_address": {
        "encoding": "inplace",
        "label": "address",
        "numberOfBytes": "20"
      },
      "t_array(t_struct(TrainingSession)2561_storage)dyn_storage": {
        "base": "t_struct(TrainingSession)2561_storage",
        "encoding": "dynamic_array",
        "label": "struct DatasetLib.TrainingSession[]",
        "numberOfBytes": "32"
      },
      "t_array(t_uint256)dyn_storage": {
        "base": "t_uint256",
        "encoding": "dynamic_array",
        "label": "uint256[]",
        "numberOfBytes": "32"
      },
      "t_bool": {
        "encoding": "inplace",
        "label": "bool",
        "numberOfBytes": "1"
      },
      "t_bytes32": {
        "encoding": "inplace",
        "label": "bytes32",
        "numberOfBytes": "32"
      },
      "t_contract(AccessManager)1427": {
        "encoding": "inplace",
        "label": "contract AccessManager",
        "numberOfBytes": "20"
      },
      "t_contract(RoyaltyManager)2138": {
        "encoding": "inplace",
        "label": "contract RoyaltyManager",
        "numberOfBytes": "20"
      },
      "t_mapping(t_address,t_array(t_uint256)dyn_storage)": {
        "encoding": "mapping",
        "key": "t_address",
        "label": "mapping(address => uint256[])",
        "numberOfBytes": "32",
        "value": "t_array(t_uint256)dyn_storage"
      },
      "t_mapping(t_address,t_struct(PurchaseRecord)2570_storage)": {
        "encoding": "mapping",
        "key": "t_address",
        "label": "mapping(address => struct DatasetLib.PurchaseRecord)",
        "numberOfBytes": "32",
        "value": "t_struct(PurchaseRecord)2570_storage"
      },
      "t_mapping(t_uint256,t_array(t_struct(TrainingSession)2561_storage)dyn_storage)": {
        "encoding": "mapping",
        "key": "t_uint256",
        "label": "mapping(uint256 => struct DatasetLib.TrainingSession[])",
        "numberOfBytes": "32",
        "value": "t_array(t_struct(TrainingSession)2561_storage)dyn_storage"
      },
      "t_mapping(t_uint256,t_mapping(t_address,t_struct(PurchaseRecord)2570_storage))": {
        "encoding": "mapping",
        "key": "t_uint256",
        "label": "mapping(uint256 => mapping(address => struct DatasetLib.PurchaseRecord))",
        "numberOfBytes": "32",
        "value": "t_mapping(t_address,t_struct(PurchaseRecord)2570_storage)"
      },
      "t_mapping(t_uint256,t_struct(Dataset)2550_storage)": {
        "encoding": "mapping",
        "key": "t_uint256",
        "label": "mapping(uint256 => struct DatasetLib.Dataset)",
        "numberOfBytes": "32",
        "value": "t_struct(Dataset)2550_storage"
      },
      "t_string_storage": {
        "encoding": "bytes",
        "label": "string",
        "numberOfBytes": "32"
      },
      "t_struct(Dataset)2550_storage": {
        "encoding": "inplace",
        "label": "struct DatasetLib.Dataset",
        "members": [
          {
            "astId": 2525,
            "contract": "contracts/AIDataMarketplace.sol:AIDataMarketplace",
            "label": "id",
            "offset": 0,
            "slot": "0",
            "type": "t_uint256"
          },
          {
            "astId": 2527,
            "contract": "contracts/AIDataMarketplace.sol:AIDataMarketplace",
            "label": "owner",
            "offset": 0,
            "slot": "1",
            "type": "t_address"
          },
          {
            "astId": 2529,
            "contract": "contracts/AIDataMarketplace.sol:AIDataMarketplace",
            "label": "ipfsCID",
            "offset": 0,
            "slot": "2",
            "type": "t_string_storage"
          },
          {
            "astId": 2531,
            "contract": "contracts/AIDataMarketplace.sol:AIDataMarketplace",
            "label": "encryptedKeyHash",
            "offset": 0,
            "slot": "3",
            "type": "t_string_storage"
          },
          {
            "astId": 2533,
            "contract": "contracts/AIDataMarketplace.sol:AIDataMarketplace",
            "label": "price",
            "offset": 0,
            "slot": "4",
            "type": "t_uint256"
          },
          {
            "astId": 2535,
            "contract": "contracts/AIDataMarketplace.sol:AIDataMarketplace",
            "label": "isActive",
            "offset": 0,
            "slot": "5",
            "type": "t_bool"
          },
          {
            "astId": 2537,
            "contract": "contracts/AIDataMarketplace.sol:AIDataMarketplace",
            "label": "totalSales",
            "offset": 0,
            "slot": "6",
            "type": "t_uint256"
          },
          {
            "astId": 2539,
            "contract": "contracts/AIDataMarketplace.sol:AIDataMarketplace",
            "label": "totalRevenue",
            "offset": 0,
            "slot": "7",
            "type": "t_uint256"
          },
          {
            "astId": 2541,
            "contract": "contracts/AIDataMarketplace.sol:AIDataMarketplace",
            "label": "category",
            "offset": 0,
            "slot": "8",
            "type": "t_string_storage"
          },
          {
            "astId": 2543,
            "contract": "contracts/AIDataMarketplace.sol:AIDataMarketplace",
            "label": "description",
            "offset": 0,
            "slot": "9",
            "type": "t_string_storage"
          },
          {
            "astId": 2545,
            "contract": "contracts/AIDataMarketplace.sol:AIDataMarketplace",
            "label": "createdAt",
            "offset": 0,
            "slot": "10",
            "type": "t_uint256"
          },
          {
            "astId": 2547,
            "contract": "contracts/AIDataMarketplace.sol:AIDataMarketplace",
            "label": "lastUpdatedAt",
            "offset": 0,
            "slot": "11",
            "type": "t_uint256"
          },
          {
            "astId": 2549,
            "contract": "contracts/AIDataMarketplace.sol:AIDataMarketplace",
            "label": "trainingSessionCount",
            "offset": 0,
            "slot": "12",
            "type": "t_uint256"
          }
        ],
        "numberOfBytes": "416"
      },
      "t_struct(PurchaseRecord)2570_storage": {
        "encoding": "inplace",
        "label": "struct DatasetLib.PurchaseRecord",
        "members": [
          {
            "astId": 2563,
            "contract": "contracts/AIDataMarketplace.sol:AIDataMarketplace",
            "label": "datasetId",
            "offset": 0,
            "slot": "0",
            "type": "t_uint256"
          },
          {
            "astId": 2565,
            "contract": "contracts/AIDataMarketplace.sol:AIDataMarketplace",
            "label": "buyer",
            "offset": 0,
            "slot": "1",
            "type": "t_address"
          },
          {
            "astId": 2567,
            "contract": "contracts/AIDataMarketplace.sol:AIDataMarketplace",
            "label": "pricePaid",
            "offset": 0,
            "slot": "2",
            "type": "t_uint256"
          },
          {
            "astId": 2569,
            "contract": "contracts/AIDataMarketplace.sol:AIDataMarketplace",
            "label": "timestamp",
            "offset": 0,
            "slot": "3",
            "type": "t_uint256"
          }
        ],
        "numberOfBytes": "128"
      },
      "t_struct(TrainingSession)2561_storage": {
        "encoding": "inplace",
        "label": "struct DatasetLib.TrainingSession",
        "members": [
          {
            "astId": 2552,
            "contract": "contracts/AIDataMarketplace.sol:AIDataMarketplace",
            "label": "datasetId",
            "offset": 0,
            "slot": "0",
            "type": "t_uint256"
          },
          {
            "astId": 2554,
            "contract": "contracts/AIDataMarketplace.sol:AIDataMarketplace",
            "label": "trainer",
            "offset": 0,
            "slot": "1",
            "type": "t_address"
          },
          {
            "astId": 2556,
            "contract": "contracts/AIDataMarketplace.sol:AIDataMarketplace",
            "label": "accuracy",
            "offset": 0,
            "slot": "2",
            "type": "t_uint256"
          },
          {
            "astId": 2558,
            "contract": "contracts/AIDataMarketplace.sol:AIDataMarketplace",
            "label": "modelHash",
            "offset": 0,
            "slot": "3",
            "type": "t_bytes32"
          },
          {
            "astId": 2560,
            "contract": "contracts/AIDataMarketplace.sol:AIDataMarketplace",
            "label": "timestamp",
            "offset": 0,
            "slot": "4",
            "type": "t_uint256"
          }
        ],
        "numberOfBytes": "160"
      },
      "t_uint256": {
        "encoding": "inplace",
        "label": "uint256",
        "numberOfBytes": "32"
      }
    }
  }
}