{
  "address": "0xc19f947C383eBfDA2ab76b940Ea1538F219e6755",
  "abi": [
    {
      "inputs": [
        {
          "internalType": "address",
          "name": "_feeRecipient",
          "type": "address"
        }
      ],
      "stateMutability": "nonpayable",
      "type": "constructor"
    },
    {
      "inputs": [
        {
          "internalType": "address",
          "name": "owner",
          "type": "address"
        }
      ],
      "name": "OwnableInvalidOwner",
      "type": "error"
    },
    {
      "inputs": [
        {
          "internalType": "address",
          "name": "account",
          "type": "address"
        }
      ],
      "name": "OwnableUnauthorizedAccount",
      "type": "error"
    },
    {
      "inputs": [],
      "name": "ReentrancyGuardReentrantCall",
      "type": "error"
    },
    {
      "anonymous": false,
      "inputs": [
        {
          "indexed": true,
          "internalType": "address",
          "name": "provider",
          "type": "address"
        },
        {
          "indexed": false,
          "internalType": "uint256",
          "name": "amount",
          "type": "uint256"
        }
      ],
      "name": "EarningsWithdrawn",
      "type": "event"
    },
    {
      "anonymous": false,
      "inputs": [
        {
          "indexed": true,
          "internalType": "address",
          "name": "newRecipient",
          "type": "address"
        }
      ],
      "name": "FeeRecipientUpdated",
      "type": "event"
    },
    {
      "anonymous": false,
      "inputs": [
        {
          "indexed": true,
          "internalType": "address",
          "name": "newMarketplace",
          "type": "address"
        }
      ],
      "name": "MarketplaceUpdated",
      "type": "event"
    },
    {
      "anonymous": false,
      "inputs": [
        {
          "indexed": true,
          "internalType": "address",
          "name": "previousOwner",
          "type": "address"
        },
        {
          "indexed": true,
          "internalType": "address",
          "name": "newOwner",
          "type": "address"
        }
      ],
      "name": "OwnershipTransferred",
      "type": "event"
    },
    {
      "anonymous": false,
      "inputs": [
        {
          "indexed": true,
          "internalType": "uint256",
          "name": "datasetId",
          "type": "uint256"
        },
        {
          "indexed": true,
          "internalType": "address",
          "name": "provider",
          "type": "address"
        },
        {
          "indexed": false,
          "internalType": "uint256",
          "name": "providerAmount",
          "type": "uint256"
        },
        {
          "indexed": false,
          "internalType": "uint256",
          "name": "platformFee",
          "type": "uint256"
        }
      ],
      "name": "RoyaltyDistributed",
      "type": "event"
    },
    {
      "inputs": [],
      "name": "BASIS_POINTS",
      "outputs": [
        {
          "internalType": "uint256",
          "name": "",
          "type": "uint256"
        }
      ],
      "stateMutability": "view",
      "type": "function"
    },
    {
      "inputs": [],
      "name": "PLATFORM_FEE_BPS",
      "outputs": [
        {
          "internalType": "uint256",
          "name": "",
          "type": "uint256"
        }
      ],
      "stateMutability": "view",
      "type": "function"
    },
    {
      "inputs": [
        {
          "internalType": "uint256",
          "name": "datasetId",
          "type": "uint256"
        },
        {
          "internalType": "address",
          "name": "provider",
          "type": "address"
        }
      ],
      "name": "distribute",
      "outputs": [],
      "stateMutability": "payable",
      "type": "function"
    },
    {
      "inputs": [],
      "name": "emergencyWithdraw",
      "outputs": [],
      "stateMutability": "nonpayable",
      "type": "function"
    },
    {
      "inputs": [],
      "name": "feeRecipient",
      "outputs": [
        {
          "internalType": "address",
          "name": "",
          "type": "address"
        }
      ],
      "stateMutability": "view",
      "type": "function"
    },
    {
      "inputs": [
        {
          "internalType": "address",
          "name": "provider",
          "type": "address"
        }
      ],
      "name": "getPendingEarnings",
      "outputs": [
        {
          "internalType": "uint256",
          "name": "",
          "type": "uint256"
        }
      ],
      "stateMutability": "view",
      "type": "function"
    },
    {
      "inputs": [],
      "name": "marketplace",
      "outputs": [
        {
          "internalType": "address",
          "name": "",
          "type": "address"
        }
      ],
      "stateMutability": "view",
      "type": "function"
    },
    {
      "inputs": [],
      "name": "owner",
      "outputs": [
        {
          "internalType": "address",
          "name": "",
          "type": "address"
        }
      ],
      "stateMutability": "view",
      "type": "function"
    },
    {
      "inputs": [],
      "name": "renounceOwnership",
      "outputs": [],
      "stateMutability": "nonpayable",
      "type": "function"
    },
    {
      "inputs": [
        {
          "internalType": "address",
          "name": "_feeRecipient",
          "type": "address"
        }
      ],
      "name": "setFeeRecipient",
      "outputs": [],
      "stateMutability": "nonpayable",
      "type": "function"
    },
    {
      "inputs": [
        {
          "internalType": "address",
          "name": "_marketplace",
          "type": "address"
        }
      ],
      "name": "setMarketplace",
      "outputs": [],
      "stateMutability": "nonpayable",
      "type": "function"
    },
    {
      "inputs": [],
      "name": "totalPlatformFees",
      "outputs": [
        {
          "internalType": "uint256",
          "name": "",
          "type": "uint256"
        }
      ],
      "stateMutability": "view",
      "type": "function"
    },
    {
      "inputs": [],
      "name": "totalProviderPayouts",
      "outputs": [
        {
          "internalType": "uint256",
          "name": "",
          "type": "uint256"
        }
      ],
      "stateMutability": "view",
      "type": "function"
    },
    {
      "inputs": [
        {
          "internalType": "address",
          "name": "newOwner",
          "type": "address"
        }
      ],
      "name": "transferOwnership",
      "outputs": [],
      "stateMutability": "nonpayable",
      "type": "function"
    },
    {
      "inputs": [],
      "name": "withdrawEarnings",
      "outputs": [],
      "stateMutability": "nonpayable",
      "type": "function"
    },
    {
      "stateMutability": "payable",
      "type": "receive"
    }
  ],
  "transactionHash": "0xd5040e157ba63c6e272e79ff9d694b44f9ba2878782ee629e4ac574beedb4554",
  "args": [
    "0x9477267ccfDC6dAb9B0Df72D9238F1C5F64AbcD7"
  ],
  "numDeployments": 1,
  "solcInputHash": "7b6a1b19683268292cda310fe0b75767",
  "bytecode": "0x608060405234801561001057600080fd5b50604051610cdb380380610cdb83398101604081905261002f9161013a565b338061005657604051631e4fbdf760e01b8152600060048201526024015b60405180910390fd5b61005f816100ea565b50600180556001600160a01b0381166100c55760405162461bcd60e51b815260206004820152602260248201527f526f79616c74794d616e616765723a207a65726f2066656520726563697069656044820152611b9d60f21b606482015260840161004d565b600380546001600160a01b0319166001600160a01b039290921691909117905561016a565b600080546001600160a01b038381166001600160a01b0319831681178455604051919092169283917f8be0079c531659141344cd1fd0a4f28419497f9722a3daafe3b4186f6b6457e09190a35050565b60006020828403121561014c57600080fd5b81516001600160a01b038116811461016357600080fd5b9392505050565b610b62806101796000396000f3fe6080604052600436106100ec5760003560e01c8063abc8c7af1161008a578063e1f1c4a711610059578063e1f1c4a714610259578063e1fa8b021461026f578063e74b981b14610282578063f2fde38b146102a257600080fd5b8063abc8c7af146101f9578063b73c6ce914610219578063d3631fa51461022e578063db2e21bc1461024457600080fd5b806373ad6c2d116100c657806373ad6c2d1461016f5780637fc8f5fe1461018f57806382f1b6b1146101a55780638da5cb5b146101db57600080fd5b806346904840146100f8578063539aa77f14610135578063715018a61461015857600080fd5b366100f357005b600080fd5b34801561010457600080fd5b50600354610118906001600160a01b031681565b6040516001600160a01b0390911681526020015b60405180910390f35b34801561014157600080fd5b5061014a60c881565b60405190815260200161012c565b34801561016457600080fd5b5061016d6102c2565b005b34801561017b57600080fd5b5061016d61018a366004610a63565b6102d6565b34801561019b57600080fd5b5061014a60065481565b3480156101b157600080fd5b5061014a6101c0366004610a63565b6001600160a01b031660009081526004602052604090205490565b3480156101e757600080fd5b506000546001600160a01b0316610118565b34801561020557600080fd5b50600254610118906001600160a01b031681565b34801561022557600080fd5b5061016d610383565b34801561023a57600080fd5b5061014a60055481565b34801561025057600080fd5b5061016d610503565b34801561026557600080fd5b5061014a61271081565b61016d61027d366004610a85565b61062f565b34801561028e57600080fd5b5061016d61029d366004610a63565b6108ba565b3480156102ae57600080fd5b5061016d6102bd366004610a63565b610962565b6102ca6109a0565b6102d460006109cd565b565b6102de6109a0565b6001600160a01b0381166103395760405162461bcd60e51b815260206004820152601c60248201527f526f79616c74794d616e616765723a207a65726f20616464726573730000000060448201526064015b60405180910390fd5b600280546001600160a01b0319166001600160a01b0383169081179091556040517f210690abd7fd6cdbb8f2beb202b2a253d58d7a0813b2175c4172c14c0c1af6dc90600090a250565b61038b610a1d565b33600090815260046020526040902054806103f85760405162461bcd60e51b815260206004820152602760248201527f526f79616c74794d616e616765723a206e6f206561726e696e677320746f20776044820152666974686472617760c81b6064820152608401610330565b3360009081526004602052604081208190556006805483929061041c908490610ac7565b9091555050604051600090339083908381818185875af1925050503d8060008114610463576040519150601f19603f3d011682016040523d82523d6000602084013e610468565b606091505b50509050806104c35760405162461bcd60e51b815260206004820152602160248201527f526f79616c74794d616e616765723a207769746864726177616c206661696c656044820152601960fa1b6064820152608401610330565b60405182815233907f48dc35af7b45e2a81fffad55f6e2fafacdb1d3d0d50d24ebdc16324f5ba757f19060200160405180910390a250506102d460018055565b61050b6109a0565b610513610a1d565b478061056d5760405162461bcd60e51b815260206004820152602360248201527f526f79616c74794d616e616765723a206e6f7468696e6720746f20776974686460448201526272617760e81b6064820152608401610330565b600080546040516001600160a01b039091169083908381818185875af1925050503d80600081146105ba576040519150601f19603f3d011682016040523d82523d6000602084013e6105bf565b606091505b50509050806106245760405162461bcd60e51b815260206004820152602b60248201527f526f79616c74794d616e616765723a20656d657267656e63792077697468647260448201526a185dd85b0819985a5b195960aa1b6064820152608401610330565b50506102d460018055565b6002546001600160a01b031633148061065257506000546001600160a01b031633145b61069e5760405162461bcd60e51b815260206004820152601e60248201527f526f79616c74794d616e616765723a206e6f7420617574686f72697a656400006044820152606401610330565b600034116106ee5760405162461bcd60e51b815260206004820152601a60248201527f526f79616c74794d616e616765723a207a65726f2076616c75650000000000006044820152606401610330565b6001600160a01b0381166107445760405162461bcd60e51b815260206004820152601d60248201527f526f79616c74794d616e616765723a207a65726f2070726f76696465720000006044820152606401610330565b600061271061075460c834610ae0565b61075e9190610af7565b9050600061076c8234610b19565b6001600160a01b038416600090815260046020526040812080549293508392909190610799908490610ac7565b9250508190555081600560008282546107b29190610ac7565b9091555050811561086e576003546040516000916001600160a01b03169084908381818185875af1925050503d806000811461080a576040519150601f19603f3d011682016040523d82523d6000602084013e61080f565b606091505b505090508061086c5760405162461bcd60e51b815260206004820152602360248201527f526f79616c74794d616e616765723a20666565207472616e73666572206661696044820152621b195960ea1b6064820152608401610330565b505b60408051828152602081018490526001600160a01b0385169186917fe3698e4763ee4becca0f71e44047f2c0018e133a8c70ab056c2ad3641fefd54a910160405180910390a350505050565b6108c26109a0565b6001600160a01b0381166109185760405162461bcd60e51b815260206004820152601c60248201527f526f79616c74794d616e616765723a207a65726f2061646472657373000000006044820152606401610330565b600380546001600160a01b0319166001600160a01b0383169081179091556040517f7a7b5a0a132f9e0581eb8527f66eae9ee89c2a3e79d4ac7e41a1f1f4d48a7fc290600090a250565b61096a6109a0565b6001600160a01b03811661099457604051631e4fbdf760e01b815260006004820152602401610330565b61099d816109cd565b50565b6000546001600160a01b031633146102d45760405163118cdaa760e01b8152336004820152602401610330565b600080546001600160a01b038381166001600160a01b0319831681178455604051919092169283917f8be0079c531659141344cd1fd0a4f28419497f9722a3daafe3b4186f6b6457e09190a35050565b600260015403610a4057604051633ee5aeb560e01b815260040160405180910390fd5b6002600155565b80356001600160a01b0381168114610a5e57600080fd5b919050565b600060208284031215610a7557600080fd5b610a7e82610a47565b9392505050565b60008060408385031215610a9857600080fd5b82359150610aa860208401610a47565b90509250929050565b634e487b7160e01b600052601160045260246000fd5b80820180821115610ada57610ada610ab1565b92915050565b8082028115828204841417610ada57610ada610ab1565b600082610b1457634e487b7160e01b600052601260045260246000fd5b500490565b81810381811115610ada57610ada610ab156fea26469706673582212205ad31f9c0aa4685e1ab31aabd3064a04b94ae4f5151ee77f0e589897f7af0d2864736f6c634300081e0033",
  "devdoc": {
    "details": "Manages royalty distribution and earnings tracking for the AI Data Marketplace on Monad.      Handles 2% platform fee and 98% provider earnings.",
    "errors": {
      "OwnableInvalidOwner(address)": [
        {
          "details": "The owner is not a valid owner account. (eg. `address(0)`)"
        }
      ],
      "OwnableUnauthorizedAccount(address)": [
        {
          "details": "The caller account is not authorized to perform an operation."
        }
      ],
      "ReentrancyGuardReentrantCall()": [
        {
          "details": "Unauthorized reentrant call."
        }
      ]
    },
    "kind": "dev",
    "methods": {
      "distribute(uint256,address)": {
        "params": {
          "datasetId": "Dataset purchased",
          "provider": "Dataset owner"
        }
      },
      "owner()": {
        "details": "Returns the address of the current owner."
      },
      "renounceOwnership()": {
        "details": "Leaves the contract without owner. It will not be possible to call `onlyOwner` functions. Can only be called by the current owner. NOTE: Renouncing ownership will leave the contract without an owner, thereby disabling any functionality that is only available to the owner."
      },
      "transferOwnership(address)": {
        "details": "Transfers ownership of the contract to a new account (`newOwner`). Can only be called by the current owner."
      }
    },
    "title": "RoyaltyManager",
    "version": 1
  },
  "userdoc": {
    "kind": "user",
    "methods": {
      "distribute(uint256,address)": {
        "notice": "Distribute incoming payment: platform fee + provider earnings"
      },
      "emergencyWithdraw()": {
        "notice": "Emergency: only owner can withdraw contract balance"
      },
      "getPendingEarnings(address)": {
        "notice": "Get pending earnings for a provider"
      },
      "setFeeRecipient(address)": {
        "notice": "Update the fee recipient address"
      },
      "setMarketplace(address)": {
        "notice": "Set the marketplace contract address"
      },
      "withdrawEarnings()": {
        "notice": "Provider withdraws their accumulated earnings"
      }
    },
    "version": 1
  },
  "storageLayout": {
    "storage": [
      {
        "astId": 8,
        "contract": "contracts/RoyaltyManager.sol:RoyaltyManager",
        "label": "_owner",
        "offset": 0,
        "slot": "0",
        "type": "t_address"
      },
      {
        "astId": 305,
        "contract": "contracts/RoyaltyManager.sol:RoyaltyManager",
        "label": "_status",
        "offset": 0,
        "slot": "1",
        "type": "t_uint256"
      },
      {
        "astId": 1807,
        "contract": "contracts/RoyaltyManager.sol:RoyaltyManager",
        "label": "marketplace",
        "offset": 0,
        "slot": "2",
        "type": "t_address"
      },
      {
        "astId": 1809,
        "contract": "contracts/RoyaltyManager.sol:RoyaltyManager",
        "label": "feeRecipient",
        "offset": 0,
        "slot": "3",
        "type": "t_address"
      },
      {
        "astId": 1813,
        "contract": "contracts/RoyaltyManager.sol:RoyaltyManager",
        "label": "_pendingEarnings",
        "offset": 0,
        "slot": "4",
        "type": "t_mapping(t_address,t_uint256)"
      },
      {
        "astId": 1815,
        "contract": "contracts/RoyaltyManager.sol:RoyaltyManager",
        "label": "totalPlatformFees",
        "offset": 0,
        "slot": "5",
        "type": "t_uint256"
      },
      {
        "astId": 1817,
        "contract": "contracts/RoyaltyManager.sol:RoyaltyManager",
        "label": "totalProviderPayouts",
        "offset": 0,
        "slot": "6",
        "type": "t_uint256"
      }
    ],
    "types": {
      "t_address": {
        "encoding": "inplace",
        "label": "address",
        "numberOfBytes": "20"
      },
      "t_mapping(t_address,t_uint256)": {
        "encoding": "mapping",
        "key": "t_address",
        "label": "mapping(address => uint256)",
        "numberOfBytes": "32",
        "value": "t_uint256"
      },
      "t_uint256": {
        "encoding": "inplace",
        "label": "uint256",
        "numberOfBytes": "32"
      }
    }
  }
}